{
  "contractName": "register",
  "abi": [
    {
      "inputs": [],
      "stateMutability": "nonpayable",
      "type": "constructor"
    },
    {
      "inputs": [],
      "name": "canCount",
      "outputs": [
        {
          "internalType": "uint256",
          "name": "",
          "type": "uint256"
        }
      ],
      "stateMutability": "view",
      "type": "function",
      "constant": true
    },
    {
      "inputs": [
        {
          "internalType": "uint256",
          "name": "",
          "type": "uint256"
        }
      ],
      "name": "cand",
      "outputs": [
        {
          "internalType": "uint256",
          "name": "id",
          "type": "uint256"
        },
        {
          "internalType": "string",
          "name": "logo",
          "type": "string"
        },
        {
          "internalType": "string",
          "name": "canName",
          "type": "string"
        },
        {
          "internalType": "string",
          "name": "canPty",
          "type": "string"
        }
      ],
      "stateMutability": "view",
      "type": "function",
      "constant": true
    },
    {
      "inputs": [
        {
          "internalType": "string",
          "name": "_logo",
          "type": "string"
        },
        {
          "internalType": "string",
          "name": "_canName",
          "type": "string"
        },
        {
          "internalType": "string",
          "name": "_canPty",
          "type": "string"
        }
      ],
      "name": "castVote",
      "outputs": [],
      "stateMutability": "nonpayable",
      "type": "function"
    }
  ],
  "bytecode": "0x6080604052600080553480156200001557600080fd5b50620000c86040518060400160405280600481526020017f55455431000000000000000000000000000000000000000000000000000000008152506040518060400160405280600581526020017f4a455355530000000000000000000000000000000000000000000000000000008152506040518060400160405280600681526020017f48454156454e00000000000000000000000000000000000000000000000000008152506200023260201b60201c565b6200017a6040518060400160405280600481526020017f55455432000000000000000000000000000000000000000000000000000000008152506040518060400160405280600581526020017f4a455355530000000000000000000000000000000000000000000000000000008152506040518060400160405280600681526020017f48454156454e00000000000000000000000000000000000000000000000000008152506200023260201b60201c565b6200022c6040518060400160405280600481526020017f55455433000000000000000000000000000000000000000000000000000000008152506040518060400160405280600581526020017f4a455355530000000000000000000000000000000000000000000000000000008152506040518060400160405280600681526020017f48454156454e00000000000000000000000000000000000000000000000000008152506200023260201b60201c565b6200048d565b6000808154809291906200024690620003da565b919050555060405180608001604052806000548152602001848152602001838152602001828152506001600080548152602001908152602001600020600082015181600001556020820151816001019080519060200190620002aa929190620002f1565b506040820151816002019080519060200190620002c9929190620002f1565b506060820151816003019080519060200190620002e8929190620002f1565b50905050505050565b828054620002ff9062000457565b90600052602060002090601f0160209004810192826200032357600085556200036f565b82601f106200033e57805160ff19168380011785556200036f565b828001600101855582156200036f579182015b828111156200036e57825182559160200191906001019062000351565b5b5090506200037e919062000382565b5090565b5b808211156200039d57600081600090555060010162000383565b5090565b7f4e487b7100000000000000000000000000000000000000000000000000000000600052601160045260246000fd5b6000819050919050565b6000620003e782620003d0565b91507fffffffffffffffffffffffffffffffffffffffffffffffffffffffffffffffff8214156200041d576200041c620003a1565b5b600182019050919050565b7f4e487b7100000000000000000000000000000000000000000000000000000000600052602260045260246000fd5b600060028204905060018216806200047057607f821691505b6020821081141562000487576200048662000428565b5b50919050565b61085a806200049d6000396000f3fe608060405234801561001057600080fd5b50600436106100415760003560e01c80632ca799b2146100465780639c0a08d014610079578063cf95a07014610097575b600080fd5b610060600480360381019061005b9190610425565b6100b3565b60405161007094939291906104fa565b60405180910390f35b61008161027b565b60405161008e9190610554565b60405180910390f35b6100b160048036038101906100ac91906106a4565b610281565b005b60016020528060005260406000206000915090508060000154908060010180546100dc9061077a565b80601f01602080910402602001604051908101604052809291908181526020018280546101089061077a565b80156101555780601f1061012a57610100808354040283529160200191610155565b820191906000526020600020905b81548152906001019060200180831161013857829003601f168201915b50505050509080600201805461016a9061077a565b80601f01602080910402602001604051908101604052809291908181526020018280546101969061077a565b80156101e35780601f106101b8576101008083540402835291602001916101e3565b820191906000526020600020905b8154815290600101906020018083116101c657829003601f168201915b5050505050908060030180546101f89061077a565b80601f01602080910402602001604051908101604052809291908181526020018280546102249061077a565b80156102715780601f1061024657610100808354040283529160200191610271565b820191906000526020600020905b81548152906001019060200180831161025457829003601f168201915b5050505050905084565b60005481565b600080815480929190610293906107db565b9190505550604051806080016040528060005481526020018481526020018381526020018281525060016000805481526020019081526020016000206000820151816000015560208201518160010190805190602001906102f5929190610338565b506040820151816002019080519060200190610312929190610338565b50606082015181600301908051906020019061032f929190610338565b50905050505050565b8280546103449061077a565b90600052602060002090601f01602090048101928261036657600085556103ad565b82601f1061037f57805160ff19168380011785556103ad565b828001600101855582156103ad579182015b828111156103ac578251825591602001919060010190610391565b5b5090506103ba91906103be565b5090565b5b808211156103d75760008160009055506001016103bf565b5090565b6000604051905090565b600080fd5b600080fd5b6000819050919050565b610402816103ef565b811461040d57600080fd5b50565b60008135905061041f816103f9565b92915050565b60006020828403121561043b5761043a6103e5565b5b600061044984828501610410565b91505092915050565b61045b816103ef565b82525050565b600081519050919050565b600082825260208201905092915050565b60005b8381101561049b578082015181840152602081019050610480565b838111156104aa576000848401525b50505050565b6000601f19601f8301169050919050565b60006104cc82610461565b6104d6818561046c565b93506104e681856020860161047d565b6104ef816104b0565b840191505092915050565b600060808201905061050f6000830187610452565b818103602083015261052181866104c1565b9050818103604083015261053581856104c1565b9050818103606083015261054981846104c1565b905095945050505050565b60006020820190506105696000830184610452565b92915050565b600080fd5b600080fd5b7f4e487b7100000000000000000000000000000000000000000000000000000000600052604160045260246000fd5b6105b1826104b0565b810181811067ffffffffffffffff821117156105d0576105cf610579565b5b80604052505050565b60006105e36103db565b90506105ef82826105a8565b919050565b600067ffffffffffffffff82111561060f5761060e610579565b5b610618826104b0565b9050602081019050919050565b82818337600083830152505050565b6000610647610642846105f4565b6105d9565b90508281526020810184848401111561066357610662610574565b5b61066e848285610625565b509392505050565b600082601f83011261068b5761068a61056f565b5b813561069b848260208601610634565b91505092915050565b6000806000606084860312156106bd576106bc6103e5565b5b600084013567ffffffffffffffff8111156106db576106da6103ea565b5b6106e786828701610676565b935050602084013567ffffffffffffffff811115610708576107076103ea565b5b61071486828701610676565b925050604084013567ffffffffffffffff811115610735576107346103ea565b5b61074186828701610676565b9150509250925092565b7f4e487b7100000000000000000000000000000000000000000000000000000000600052602260045260246000fd5b6000600282049050600182168061079257607f821691505b602082108114156107a6576107a561074b565b5b50919050565b7f4e487b7100000000000000000000000000000000000000000000000000000000600052601160045260246000fd5b60006107e6826103ef565b91507fffffffffffffffffffffffffffffffffffffffffffffffffffffffffffffffff821415610819576108186107ac565b5b60018201905091905056fea26469706673582212200d6078ea5477a9170835ea9da041c11a087d210acd40829eda6f3e43caf78cf364736f6c634300080b0033",
  "immutableReferences": {},
  "source": "// SPDX-License-Identifier: MIT\r\npragma solidity >=0.4.22 <0.9.0;\r\n\r\ncontract register{\r\n\r\n    uint public canCount=0;\r\n    struct can{\r\n        uint id;\r\n        string logo;\r\n        string canName;\r\n        string canPty;\r\n    }\r\n\r\n    mapping(uint => can) public cand;\r\n    \r\n    function castVote(string memory _logo,string memory _canName,string memory _canPty) public{\r\n        canCount++;\r\n        cand[canCount]=can(canCount,_logo,_canName,_canPty);\r\n    }\r\n    \r\n    constructor(){\r\n        castVote(\"UET1\", \"JESUS\", \"HEAVEN\");\r\n        castVote(\"UET2\", \"JESUS\", \"HEAVEN\");\r\n        castVote(\"UET3\", \"JESUS\", \"HEAVEN\");\r\n    }\r\n}",
  "sourcePath": "C:\\Users\\karti\\VoteIndia\\VOTE_INDIA\\contracts\\register.sol",
  "compiler": {
    "name": "solc",
    "version": "0.8.11+commit.d7f03943.Emscripten.clang"
  },
  "schemaVersion": "3.4.4",
  "updatedAt": "2022-06-24T04:59:19.554Z",
  "networkType": "ethereum",
  "devdoc": {
    "kind": "dev",
    "methods": {},
    "version": 1
  },
  "userdoc": {
    "kind": "user",
    "methods": {},
    "version": 1
  }
}