{
  "contractName": "voting",
  "abi": [
    {
      "anonymous": false,
      "inputs": [
        {
          "indexed": false,
          "internalType": "string",
          "name": "VID",
          "type": "string"
        }
      ],
      "name": "voted",
      "type": "event"
    },
    {
      "inputs": [],
      "name": "voteCount",
      "outputs": [
        {
          "internalType": "uint256",
          "name": "",
          "type": "uint256"
        }
      ],
      "stateMutability": "view",
      "type": "function",
      "constant": true
    },
    {
      "inputs": [
        {
          "internalType": "uint256",
          "name": "",
          "type": "uint256"
        }
      ],
      "name": "votes",
      "outputs": [
        {
          "internalType": "uint256",
          "name": "id",
          "type": "uint256"
        },
        {
          "internalType": "string",
          "name": "voterID",
          "type": "string"
        },
        {
          "internalType": "string",
          "name": "voteCan",
          "type": "string"
        },
        {
          "internalType": "string",
          "name": "votePty",
          "type": "string"
        }
      ],
      "stateMutability": "view",
      "type": "function",
      "constant": true
    },
    {
      "inputs": [
        {
          "internalType": "string",
          "name": "_voterID",
          "type": "string"
        },
        {
          "internalType": "string",
          "name": "_voteCan",
          "type": "string"
        },
        {
          "internalType": "string",
          "name": "_votePty",
          "type": "string"
        }
      ],
      "name": "castVote",
      "outputs": [],
      "stateMutability": "nonpayable",
      "type": "function"
    }
  ],
  "bytecode": "0x60806040526000805534801561001457600080fd5b506108b3806100246000396000f3fe608060405234801561001057600080fd5b50600436106100415760003560e01c80635df8133014610046578063c638407114610079578063cf95a07014610097575b600080fd5b610060600480360381019061005b919061045c565b6100b3565b6040516100709493929190610531565b60405180910390f35b61008161027b565b60405161008e919061058b565b60405180910390f35b6100b160048036038101906100ac91906106db565b610281565b005b60016020528060005260406000206000915090508060000154908060010180546100dc906107b1565b80601f0160208091040260200160405190810160405280929190818152602001828054610108906107b1565b80156101555780601f1061012a57610100808354040283529160200191610155565b820191906000526020600020905b81548152906001019060200180831161013857829003601f168201915b50505050509080600201805461016a906107b1565b80601f0160208091040260200160405190810160405280929190818152602001828054610196906107b1565b80156101e35780601f106101b8576101008083540402835291602001916101e3565b820191906000526020600020905b8154815290600101906020018083116101c657829003601f168201915b5050505050908060030180546101f8906107b1565b80601f0160208091040260200160405190810160405280929190818152602001828054610224906107b1565b80156102715780601f1061024657610100808354040283529160200191610271565b820191906000526020600020905b81548152906001019060200180831161025457829003601f168201915b5050505050905084565b60005481565b60008081548092919061029390610812565b9190505550604051806080016040528060005481526020018481526020018381526020018281525060016000805481526020019081526020016000206000820151816000015560208201518160010190805190602001906102f592919061036f565b50604082015181600201908051906020019061031292919061036f565b50606082015181600301908051906020019061032f92919061036f565b509050507f135a548ddd56c62744818e527ff3635720303c1025dff2d9a4a3a1a4160323f283604051610362919061085b565b60405180910390a1505050565b82805461037b906107b1565b90600052602060002090601f01602090048101928261039d57600085556103e4565b82601f106103b657805160ff19168380011785556103e4565b828001600101855582156103e4579182015b828111156103e35782518255916020019190600101906103c8565b5b5090506103f191906103f5565b5090565b5b8082111561040e5760008160009055506001016103f6565b5090565b6000604051905090565b600080fd5b600080fd5b6000819050919050565b61043981610426565b811461044457600080fd5b50565b60008135905061045681610430565b92915050565b6000602082840312156104725761047161041c565b5b600061048084828501610447565b91505092915050565b61049281610426565b82525050565b600081519050919050565b600082825260208201905092915050565b60005b838110156104d25780820151818401526020810190506104b7565b838111156104e1576000848401525b50505050565b6000601f19601f8301169050919050565b600061050382610498565b61050d81856104a3565b935061051d8185602086016104b4565b610526816104e7565b840191505092915050565b60006080820190506105466000830187610489565b818103602083015261055881866104f8565b9050818103604083015261056c81856104f8565b9050818103606083015261058081846104f8565b905095945050505050565b60006020820190506105a06000830184610489565b92915050565b600080fd5b600080fd5b7f4e487b7100000000000000000000000000000000000000000000000000000000600052604160045260246000fd5b6105e8826104e7565b810181811067ffffffffffffffff82111715610607576106066105b0565b5b80604052505050565b600061061a610412565b905061062682826105df565b919050565b600067ffffffffffffffff821115610646576106456105b0565b5b61064f826104e7565b9050602081019050919050565b82818337600083830152505050565b600061067e6106798461062b565b610610565b90508281526020810184848401111561069a576106996105ab565b5b6106a584828561065c565b509392505050565b600082601f8301126106c2576106c16105a6565b5b81356106d284826020860161066b565b91505092915050565b6000806000606084860312156106f4576106f361041c565b5b600084013567ffffffffffffffff81111561071257610711610421565b5b61071e868287016106ad565b935050602084013567ffffffffffffffff81111561073f5761073e610421565b5b61074b868287016106ad565b925050604084013567ffffffffffffffff81111561076c5761076b610421565b5b610778868287016106ad565b9150509250925092565b7f4e487b7100000000000000000000000000000000000000000000000000000000600052602260045260246000fd5b600060028204905060018216806107c957607f821691505b602082108114156107dd576107dc610782565b5b50919050565b7f4e487b7100000000000000000000000000000000000000000000000000000000600052601160045260246000fd5b600061081d82610426565b91507fffffffffffffffffffffffffffffffffffffffffffffffffffffffffffffffff8214156108505761084f6107e3565b5b600182019050919050565b6000602082019050818103600083015261087581846104f8565b90509291505056fea26469706673582212205dabdbb2acfc86fa24863e9b1467170c86530ea898346afd4388bd86b09d23c864736f6c634300080b0033",
  "immutableReferences": {},
  "source": "// SPDX-License-Identifier: MIT\r\npragma solidity >=0.4.22 <0.9.0;\r\n\r\ncontract voting{\r\n\r\n    uint public voteCount=0;\r\n    struct vote{\r\n        uint id;\r\n        string voterID;\r\n        string voteCan;\r\n        string votePty;\r\n    }\r\n\r\n    mapping(uint => vote) public votes;\r\n    event voted(string VID);\r\n    \r\n    function castVote(string memory _voterID,string memory _voteCan,string memory _votePty) public{\r\n        voteCount++;\r\n        votes[voteCount]=vote(voteCount,_voterID,_voteCan,_votePty);\r\n        emit voted(_voterID);\r\n    }\r\n    \r\n}",
  "sourcePath": "C:\\Users\\karti\\VoteIndia\\VOTE_INDIA\\contracts\\vote.sol",
  "compiler": {
    "name": "solc",
    "version": "0.8.11+commit.d7f03943.Emscripten.clang"
  },
  "schemaVersion": "3.4.4",
  "updatedAt": "2022-06-24T04:59:15.570Z",
  "networkType": "ethereum",
  "devdoc": {
    "kind": "dev",
    "methods": {},
    "version": 1
  },
  "userdoc": {
    "kind": "user",
    "methods": {},
    "version": 1
  }
}